:100000000C9440000C9480030C94AA030C94D40329
:100010000C946C040C946C040C946C040C946C04A0
:100020000C946C040C946C040C946C040C946C0490
:100030000C946C040C946C040C946C040C946C0480
:100040000C946C040C946C040C946C040C946C0470
:100050000C946C04006000710008E6007100898057
:100060000089008F0008F7008F009580009500AB95
:100070000008FD00AB00AE8000AE00B10009130027
:1000800011241FBECFE5D8E0DEBFCDBFE4E5F0E030
:1000900040E017C0B591A59135912591059107FDD7
:1000A0000CC095918591EF01F92FE82F05900D92E5
:1000B000A217B307D9F7FE0104C01D92A217B30718
:1000C000E1F7EF37F40731F70E945E040C944A041D
:0400D000F894FFCFD2
:1000D4000F931F93CF93DF9300D00F92CDB7DEB76A
:1000E4008C01609195007091960080919700909199
:1000F4009800D8018D919C910E947E0119821A82E8
:100104001B821982898140919500509196006091DB
:1001140097007091980090E0A0E0B0E084179507F4
:10012400A607B70708F0E0C08981F801B8E08B9F03
:10013400E00DF11D11240190F081E02D8081837088
:100144008A838981F80198E0899FE00DF11D1124CB
:100154000190F081E02D818187708B83D801ED912E
:10016400FC9111978A818083ED91FC9111978B8189
:10017400818385B7807F85BF84B78F7B84BF1496C6
:100184008C911497811135C012968C91813039F479
:1001940085B7816085BF85B7826085BF1AC082300C
:1001A40039F485B78E7F85BF85B7826085BF11C05E
:1001B400833039F485B7816085BF85B78D7F85BF6E
:1001C40008C0811106C085B78E7F85BF85B78D7F36
:1001D40085BFF8018581813029F48BB780648BBF9A
:1001E40078945EC081115CC08BB78F7B8BBFF89411
:1001F40057C08130B1F5D80112968C91813039F411
:1002040085B7846085BF85B7886085BF1AC0823092
:1002140039F485B78B7F85BF85B7886085BF11C0EA
:10022400833039F485B7846085BF85B7877F85BF00
:1002340008C0811106C085B78B7F85BF85B7877FCE
:1002440085BFF8018581813029F48BB780688BBF25
:10025400789426C0811124C08BB78F778BBFF89414
:100264001FC08230E9F4D80112968C91813021F4B8
:1002740084B7806484BF05C0823019F484B78F7B4F
:1002840084BFF8018581813029F48BB780628BBFEC
:10029400789406C0811104C08BB78F7D8BBFF8940E
:1002A400D8011396EC911397F0E0EE0FFF1FE1577E
:1002B400FF4F16968D919C91179791838083898126
:1002C4008F5F898389814091950050919600609158
:1002D40097007091980090E0A0E0B0E08417950733
:1002E400A607B70708F420CF0F900F900F90DF9167
:0802F400CF911F910F910895B5
:1002FC000F931F93CF93DF9300D000D0CDB7DEB711
:10030C008C016C838091B00081110E94B202198221
:10031C001A821B82198299818C81981708F0BAC0B5
:10032C0021E030E0898190E0FC01EE0FFF1F8E0F81
:10033C009F1FF801E80FF91F808183708A838981E0
:10034C0090E0FC01EE0FFF1F8E0F9F1FF801E80FCE
:10035C00F91F818187708B83898190E0FC01EE0FFE
:10036C00FF1F8E0F9F1FF801E80FF91F828181116B
:10037C002DC08B81EA81F0E0EE0FFF1FEF58FF4F8D
:10038C000190F081E02D4081B90102C0660F771F0A
:10039C008A95E2F7CB0180959095842380838B819D
:1003AC00EA81F0E0EE0FFF1FE758FF4F0190F0815C
:1003BC00E02D4081B90102C0660F771F8A95E2F7E4
:1003CC00CB0180959095842380835CC0898190E0DB
:1003DC00FC01EE0FFF1F8E0F9F1FF801E80FF91F96
:1003EC008281813071F580B78B7F80BF8B81EA81F0
:1003FC00F0E0EE0FFF1FEF58FF4F0190F081E02D62
:10040C004081B90102C0660F771F8A95E2F7CB01D4
:10041C0080959095842380838B81EA81F0E0EE0FA8
:10042C00FF1FE758FF4F0190F081E02D4081B9018B
:10043C0002C0660F771F8A95E2F7CB01842B80836D
:10044C0021C0898190E0FC01EE0FFF1F8E0F9F1FD2
:10045C00F801E80FF91F82818230A1F48B81EA81C7
:10046C00F0E0EE0FFF1FEF58FF4F0190F081E02DF1
:10047C004081B90102C0660F771F8A95E2F7CB0164
:10048C00842B808389818F5F898399818C819817D4
:10049C0008F448CF0F900F900F900F90DF91CF91F1
:0604AC001F910F9108955D
:1004B200CF93DF930F92CDB7DEB719828091AD0053
:1004C200813061F128F0823099F18330E1F145C049
:1004D20019828981833008F040C08091AB009091ED
:1004E200AC00298130E0F901EE0FFF1F2E0F3F1FF4
:1004F200FC01E20FF31F1282298130E0A901440FAF
:10050200551F240F351F820F931F0E94FE038981FE
:100512008F5F89838981833000F31FC08091AB0094
:100522009091AC0021E0FC0122830E94FE0315C0E1
:100532008091AB009091AC0021E0FC0125830396F1
:100542000E94FE030AC08091AB009091AC0021E0B2
:10055200FC01208706960E94FE030F90DF91CF9147
:020562000895FA
:10056400CF93DF93C9E7D0E08BE390E0998388834E
:10057400A1E7B0E08AE390E011969C938E93E1E8C2
:10058400F0E089E390E09183808388E390E09B83AB
:100594008A8387E390E013969C938E93129786E365
:1005A40090E09383828385E390E09D838C8384E34E
:1005B40090E015969C938E93149783E390E0958333
:1005C400848382E390E09F838E8381E390E0179697
:1005D4009C938E93169780E390E097838683109282
:0805E400B000DF91CF910895F2
:1005EC000F931F93CF93DF930F92CDB7DEB70E947B
:1005FC0069048C011982198299818091AF00981736
:10060C00C0F46091AF00898190E0FC01EE0FFF1FF8
:10061C008E0F9F1FF801E80FF91F808191810E94B6
:10062C007E0189818F5F898399818091AF009817B2
:0E063C0040F30F90DF91CF911F910F91089521
:10064A000F931F93CF93DF930F92CDB7DEB70E941C
:10065A0066048C011982198299818091AE009817DB
:10066A00B8F4898190E0FC01EE0FFF1F8E0F9F1FE7
:10067A00F801E80FF91F61E0808191810E947E01F3
:10068A0089818F5F898399818091AE00981748F399
:0C069A000F90DF91CF911F910F910895F8
:1006A6004130A1F4E82FF0E0EE0FFF1FE758FF4FAF
:1006B6000190F081E02D208181E090E002C0880F5A
:1006C600991F6A95E2F7822B80830895411114C021
:1006D600E82FF0E0EE0FFF1FE758FF4F0190F08183
:1006E600E02D208181E090E002C0880F991F6A9575
:0A06F600E2F78095822380830895C7
:100700001F920F920FB60F9211242F933F934F9386
:100710005F936F937F938F939F93AF93BF93EF9369
:10072000FF938AB780648ABFE0918F00F0919000B8
:100730000995FF91EF91BF91AF919F918F917F911B
:100740006F915F914F913F912F910F900FBE0F903E
:040750001F90189549
:100754001F920F920FB60F9211242F933F934F9332
:100764005F936F937F938F939F93AF93BF93EF9315
:10077400FF938AB780688ABFE0919100F09192005C
:100784000995FF91EF91BF91AF919F918F917F91C7
:100794006F915F914F913F912F910F900FBE0F90EA
:0407A4001F901895F5
:1007A8001F920F920FB60F9211242F933F934F93DE
:1007B8005F936F937F938F939F93AF93BF93EF93C1
:1007C800FF938AB780628ABFE0919300F09194000A
:1007D8000995FF91EF91BF91AF919F918F917F9173
:1007E8006F915F914F913F912F910F900FBE0F9096
:0407F8001F901895A1
:1007FC00FC019281913021F060F0923099F00895D3
:10080C000190F081E02D41E0618180810E945303D1
:10081C0008950190F081E02D40E0618180810E947B
:10082C00530308950190F081E02D618180810E9435
:04083C0036040895E1
:100840000E94630425E534E0FC01378326830E947F
:1008500063040E946A000E9425030E94F6020E941F
:0C08600066049093AC008093AB000895F8
:10086C00E82FF0E0EE0FFF1FE758FF4F0190F081EB
:10087C00E02D208181E090E002C0880F991F6A95DD
:08088C00E2F782278083089542
:10089400EC010E9471040E947004CE010E94720453
:0608A400CE010E946E046B
:1008AA008091AD008F5F8093AD0083708093AD001F
:0208BA0008959F
:0A08BC000E9420040E945902FDCFA3
:0608C60089E690E00895B0
:0608CC0080E690E00895B3
:0608D20089E890E00895A2
:0408D8000C9400007C
:0408DC000E9468000E
:0208E000089579
:0208E200089577
:0208E400089575
:0908E600A200009F00009C00002C
:0808EF00990002000001000065
:0608F700A80000A50000AE
:0408FD0001000000F6
:03090100030200EE
:03090400000702E7
:03090700000302E8
:03090A00000102E7
:03090D00020100E4
:03091000030200DF
:0109130003E0
:0109140002E0
:0109150001E0
:00000001FF
